{
  "_format": "hh-sol-artifact-1",
  "contractName": "MultiSender",
  "sourceName": "contracts/MultiSender.sol",
  "abi": [
    {
      "inputs": [],
      "stateMutability": "nonpayable",
      "type": "constructor"
    },
    {
      "inputs": [
        {
          "internalType": "address",
          "name": "owner",
          "type": "address"
        }
      ],
      "name": "OwnableInvalidOwner",
      "type": "error"
    },
    {
      "inputs": [
        {
          "internalType": "address",
          "name": "account",
          "type": "address"
        }
      ],
      "name": "OwnableUnauthorizedAccount",
      "type": "error"
    },
    {
      "anonymous": false,
      "inputs": [
        {
          "indexed": true,
          "internalType": "address",
          "name": "sender",
          "type": "address"
        },
        {
          "indexed": true,
          "internalType": "address",
          "name": "tokenAddress",
          "type": "address"
        },
        {
          "indexed": false,
          "internalType": "address[]",
          "name": "recipients",
          "type": "address[]"
        },
        {
          "indexed": false,
          "internalType": "uint256[]",
          "name": "amounts",
          "type": "uint256[]"
        }
      ],
      "name": "ERC20TokensSent",
      "type": "event"
    },
    {
      "anonymous": false,
      "inputs": [
        {
          "indexed": true,
          "internalType": "address",
          "name": "sender",
          "type": "address"
        },
        {
          "indexed": false,
          "internalType": "address[]",
          "name": "recipients",
          "type": "address[]"
        },
        {
          "indexed": false,
          "internalType": "uint256[]",
          "name": "amounts",
          "type": "uint256[]"
        }
      ],
      "name": "NativeTokensSent",
      "type": "event"
    },
    {
      "anonymous": false,
      "inputs": [
        {
          "indexed": true,
          "internalType": "address",
          "name": "previousOwner",
          "type": "address"
        },
        {
          "indexed": true,
          "internalType": "address",
          "name": "newOwner",
          "type": "address"
        }
      ],
      "name": "OwnershipTransferred",
      "type": "event"
    },
    {
      "inputs": [],
      "name": "owner",
      "outputs": [
        {
          "internalType": "address",
          "name": "",
          "type": "address"
        }
      ],
      "stateMutability": "view",
      "type": "function"
    },
    {
      "inputs": [],
      "name": "renounceOwnership",
      "outputs": [],
      "stateMutability": "nonpayable",
      "type": "function"
    },
    {
      "inputs": [
        {
          "internalType": "address",
          "name": "_tokenAddress",
          "type": "address"
        },
        {
          "internalType": "address[]",
          "name": "_recipients",
          "type": "address[]"
        },
        {
          "internalType": "uint256[]",
          "name": "_amounts",
          "type": "uint256[]"
        }
      ],
      "name": "sendERC20Tokens",
      "outputs": [],
      "stateMutability": "nonpayable",
      "type": "function"
    },
    {
      "inputs": [
        {
          "internalType": "address[]",
          "name": "_recipients",
          "type": "address[]"
        },
        {
          "internalType": "uint256[]",
          "name": "_amounts",
          "type": "uint256[]"
        }
      ],
      "name": "sendNativeTokens",
      "outputs": [],
      "stateMutability": "payable",
      "type": "function"
    },
    {
      "inputs": [
        {
          "internalType": "address",
          "name": "newOwner",
          "type": "address"
        }
      ],
      "name": "transferOwnership",
      "outputs": [],
      "stateMutability": "nonpayable",
      "type": "function"
    },
    {
      "inputs": [
        {
          "internalType": "address",
          "name": "_tokenAddress",
          "type": "address"
        }
      ],
      "name": "withdrawERC20Tokens",
      "outputs": [],
      "stateMutability": "nonpayable",
      "type": "function"
    },
    {
      "inputs": [],
      "name": "withdrawNativeTokens",
      "outputs": [],
      "stateMutability": "nonpayable",
      "type": "function"
    },
    {
      "stateMutability": "payable",
      "type": "receive"
    }
  ],
  "bytecode": "0x60806040523480156200001157600080fd5b5033600073ffffffffffffffffffffffffffffffffffffffff168173ffffffffffffffffffffffffffffffffffffffff1603620000885760006040517f1e4fbdf70000000000000000000000000000000000000000000000000000000081526004016200007f9190620001a9565b60405180910390fd5b6200009981620000a060201b60201c565b50620001c6565b60008060009054906101000a900473ffffffffffffffffffffffffffffffffffffffff169050816000806101000a81548173ffffffffffffffffffffffffffffffffffffffff021916908373ffffffffffffffffffffffffffffffffffffffff1602179055508173ffffffffffffffffffffffffffffffffffffffff168173ffffffffffffffffffffffffffffffffffffffff167f8be0079c531659141344cd1fd0a4f28419497f9722a3daafe3b4186f6b6457e060405160405180910390a35050565b600073ffffffffffffffffffffffffffffffffffffffff82169050919050565b6000620001918262000164565b9050919050565b620001a38162000184565b82525050565b6000602082019050620001c0600083018462000198565b92915050565b6115c380620001d66000396000f3fe6080604052600436106100745760003560e01c80637c9a74f21161004e5780637c9a74f2146100e95780638da5cb5b14610105578063955a79c314610130578063f2fde38b146101475761007b565b80632af301a6146100805780634ff7ff32146100a9578063715018a6146100d25761007b565b3661007b57005b600080fd5b34801561008c57600080fd5b506100a760048036038101906100a29190610ca6565b610170565b005b3480156100b557600080fd5b506100d060048036038101906100cb9190610d3b565b610498565b005b3480156100de57600080fd5b506100e761062f565b005b61010360048036038101906100fe9190610d68565b610643565b005b34801561011157600080fd5b5061011a6108c3565b6040516101279190610df8565b60405180910390f35b34801561013c57600080fd5b506101456108ec565b005b34801561015357600080fd5b5061016e60048036038101906101699190610d3b565b6109aa565b005b610178610a30565b8181905084849050146101c0576040517f08c379a00000000000000000000000000000000000000000000000000000000081526004016101b790610e96565b60405180910390fd5b60008484905011610206576040517f08c379a00000000000000000000000000000000000000000000000000000000081526004016101fd90610f02565b60405180910390fd5b60008590506000805b8484905081101561024e5784848281811061022d5761022c610f22565b5b905060200201358261023f9190610f8a565b9150808060010191505061020f565b50808273ffffffffffffffffffffffffffffffffffffffff166370a08231306040518263ffffffff1660e01b81526004016102899190610df8565b602060405180830381865afa1580156102a6573d6000803e3d6000fd5b505050506040513d601f19601f820116820180604052508101906102ca9190610fea565b101561030b576040517f08c379a000000000000000000000000000000000000000000000000000000000815260040161030290611063565b60405180910390fd5b60005b86869050811015610423578273ffffffffffffffffffffffffffffffffffffffff1663a9059cbb88888481811061034857610347610f22565b5b905060200201602081019061035d9190610d3b565b8787858181106103705761036f610f22565b5b905060200201356040518363ffffffff1660e01b8152600401610394929190611092565b6020604051808303816000875af11580156103b3573d6000803e3d6000fd5b505050506040513d601f19601f820116820180604052508101906103d791906110f3565b610416576040517f08c379a000000000000000000000000000000000000000000000000000000000815260040161040d9061116c565b60405180910390fd5b808060010191505061030e565b508673ffffffffffffffffffffffffffffffffffffffff163373ffffffffffffffffffffffffffffffffffffffff167fa745424e52be3776c8f13a3ca59e3784bf8ab54532dd93611cbeb475eecb5e878888888860405161048794939291906112ca565b60405180910390a350505050505050565b6104a0610a30565b600081905060008173ffffffffffffffffffffffffffffffffffffffff166370a08231306040518263ffffffff1660e01b81526004016104e09190610df8565b602060405180830381865afa1580156104fd573d6000803e3d6000fd5b505050506040513d601f19601f820116820180604052508101906105219190610fea565b905060008111610566576040517f08c379a000000000000000000000000000000000000000000000000000000000815260040161055d90611351565b60405180910390fd5b8173ffffffffffffffffffffffffffffffffffffffff1663a9059cbb61058a6108c3565b836040518363ffffffff1660e01b81526004016105a8929190611092565b6020604051808303816000875af11580156105c7573d6000803e3d6000fd5b505050506040513d601f19601f820116820180604052508101906105eb91906110f3565b61062a576040517f08c379a0000000000000000000000000000000000000000000000000000000008152600401610621906113bd565b60405180910390fd5b505050565b610637610a30565b6106416000610ab7565b565b61064b610a30565b818190508484905014610693576040517f08c379a000000000000000000000000000000000000000000000000000000000815260040161068a90610e96565b60405180910390fd5b600084849050116106d9576040517f08c379a00000000000000000000000000000000000000000000000000000000081526004016106d090610f02565b60405180910390fd5b6000805b8383905081101561071c578383828181106106fb576106fa610f22565b5b905060200201358261070d9190610f8a565b915080806001019150506106dd565b5080341461075f576040517f08c379a00000000000000000000000000000000000000000000000000000000081526004016107569061144f565b60405180910390fd5b60005b8585905081101561086757600086868381811061078257610781610f22565b5b90506020020160208101906107979190610d3b565b73ffffffffffffffffffffffffffffffffffffffff168585848181106107c0576107bf610f22565b5b905060200201356040516107d3906114a0565b60006040518083038185875af1925050503d8060008114610810576040519150601f19603f3d011682016040523d82523d6000602084013e610815565b606091505b5050905080610859576040517f08c379a000000000000000000000000000000000000000000000000000000000815260040161085090611501565b60405180910390fd5b508080600101915050610762565b503373ffffffffffffffffffffffffffffffffffffffff167f84e771ac7bfed0348a7bdeb8846ad0aea353eceb70dc4f5a51b6ae8fa78cf1d6868686866040516108b494939291906112ca565b60405180910390a25050505050565b60008060009054906101000a900473ffffffffffffffffffffffffffffffffffffffff16905090565b6108f4610a30565b60006108fe6108c3565b73ffffffffffffffffffffffffffffffffffffffff1647604051610921906114a0565b60006040518083038185875af1925050503d806000811461095e576040519150601f19603f3d011682016040523d82523d6000602084013e610963565b606091505b50509050806109a7576040517f08c379a000000000000000000000000000000000000000000000000000000000815260040161099e9061156d565b60405180910390fd5b50565b6109b2610a30565b600073ffffffffffffffffffffffffffffffffffffffff168173ffffffffffffffffffffffffffffffffffffffff1603610a245760006040517f1e4fbdf7000000000000000000000000000000000000000000000000000000008152600401610a1b9190610df8565b60405180910390fd5b610a2d81610ab7565b50565b610a38610b7b565b73ffffffffffffffffffffffffffffffffffffffff16610a566108c3565b73ffffffffffffffffffffffffffffffffffffffff1614610ab557610a79610b7b565b6040517f118cdaa7000000000000000000000000000000000000000000000000000000008152600401610aac9190610df8565b60405180910390fd5b565b60008060009054906101000a900473ffffffffffffffffffffffffffffffffffffffff169050816000806101000a81548173ffffffffffffffffffffffffffffffffffffffff021916908373ffffffffffffffffffffffffffffffffffffffff1602179055508173ffffffffffffffffffffffffffffffffffffffff168173ffffffffffffffffffffffffffffffffffffffff167f8be0079c531659141344cd1fd0a4f28419497f9722a3daafe3b4186f6b6457e060405160405180910390a35050565b600033905090565b600080fd5b600080fd5b600073ffffffffffffffffffffffffffffffffffffffff82169050919050565b6000610bb882610b8d565b9050919050565b610bc881610bad565b8114610bd357600080fd5b50565b600081359050610be581610bbf565b92915050565b600080fd5b600080fd5b600080fd5b60008083601f840112610c1057610c0f610beb565b5b8235905067ffffffffffffffff811115610c2d57610c2c610bf0565b5b602083019150836020820283011115610c4957610c48610bf5565b5b9250929050565b60008083601f840112610c6657610c65610beb565b5b8235905067ffffffffffffffff811115610c8357610c82610bf0565b5b602083019150836020820283011115610c9f57610c9e610bf5565b5b9250929050565b600080600080600060608688031215610cc257610cc1610b83565b5b6000610cd088828901610bd6565b955050602086013567ffffffffffffffff811115610cf157610cf0610b88565b5b610cfd88828901610bfa565b9450945050604086013567ffffffffffffffff811115610d2057610d1f610b88565b5b610d2c88828901610c50565b92509250509295509295909350565b600060208284031215610d5157610d50610b83565b5b6000610d5f84828501610bd6565b91505092915050565b60008060008060408587031215610d8257610d81610b83565b5b600085013567ffffffffffffffff811115610da057610d9f610b88565b5b610dac87828801610bfa565b9450945050602085013567ffffffffffffffff811115610dcf57610dce610b88565b5b610ddb87828801610c50565b925092505092959194509250565b610df281610bad565b82525050565b6000602082019050610e0d6000830184610de9565b92915050565b600082825260208201905092915050565b7f526563697069656e747320616e6420616d6f756e7473206c656e677468206d6960008201527f736d617463680000000000000000000000000000000000000000000000000000602082015250565b6000610e80602683610e13565b9150610e8b82610e24565b604082019050919050565b60006020820190508181036000830152610eaf81610e73565b9050919050565b7f4e6f20726563697069656e74732070726f766964656400000000000000000000600082015250565b6000610eec601683610e13565b9150610ef782610eb6565b602082019050919050565b60006020820190508181036000830152610f1b81610edf565b9050919050565b7f4e487b7100000000000000000000000000000000000000000000000000000000600052603260045260246000fd5b6000819050919050565b7f4e487b7100000000000000000000000000000000000000000000000000000000600052601160045260246000fd5b6000610f9582610f51565b9150610fa083610f51565b9250828201905080821115610fb857610fb7610f5b565b5b92915050565b610fc781610f51565b8114610fd257600080fd5b50565b600081519050610fe481610fbe565b92915050565b60006020828403121561100057610fff610b83565b5b600061100e84828501610fd5565b91505092915050565b7f496e73756666696369656e7420636f6e74726163742062616c616e6365000000600082015250565b600061104d601d83610e13565b915061105882611017565b602082019050919050565b6000602082019050818103600083015261107c81611040565b9050919050565b61108c81610f51565b82525050565b60006040820190506110a76000830185610de9565b6110b46020830184611083565b9392505050565b60008115159050919050565b6110d0816110bb565b81146110db57600080fd5b50565b6000815190506110ed816110c7565b92915050565b60006020828403121561110957611108610b83565b5b6000611117848285016110de565b91505092915050565b7f4661696c656420746f2073656e6420455243323020746f6b656e730000000000600082015250565b6000611156601b83610e13565b915061116182611120565b602082019050919050565b6000602082019050818103600083015261118581611149565b9050919050565b600082825260208201905092915050565b6000819050919050565b6111b081610bad565b82525050565b60006111c283836111a7565b60208301905092915050565b60006111dd6020840184610bd6565b905092915050565b6000602082019050919050565b60006111fe838561118c565b93506112098261119d565b8060005b858110156112425761121f82846111ce565b61122988826111b6565b9750611234836111e5565b92505060018101905061120d565b5085925050509392505050565b600082825260208201905092915050565b600080fd5b82818337505050565b600061127a838561124f565b93507f07ffffffffffffffffffffffffffffffffffffffffffffffffffffffffffffff8311156112ad576112ac611260565b5b6020830292506112be838584611265565b82840190509392505050565b600060408201905081810360008301526112e58186886111f2565b905081810360208301526112fa81848661126e565b905095945050505050565b7f4e6f20746f6b656e7320746f2077697468647261770000000000000000000000600082015250565b600061133b601583610e13565b915061134682611305565b602082019050919050565b6000602082019050818103600083015261136a8161132e565b9050919050565b7f4661696c656420746f20776974686472617720455243323020746f6b656e7300600082015250565b60006113a7601f83610e13565b91506113b282611371565b602082019050919050565b600060208201905081810360008301526113d68161139a565b9050919050565b7f53656e742076616c756520646f6573206e6f74206d6174636820746f74616c2060008201527f616d6f756e740000000000000000000000000000000000000000000000000000602082015250565b6000611439602683610e13565b9150611444826113dd565b604082019050919050565b600060208201905081810360008301526114688161142c565b9050919050565b600081905092915050565b50565b600061148a60008361146f565b91506114958261147a565b600082019050919050565b60006114ab8261147d565b9150819050919050565b7f4661696c656420746f2073656e64206e617469766520746f6b656e7300000000600082015250565b60006114eb601c83610e13565b91506114f6826114b5565b602082019050919050565b6000602082019050818103600083015261151a816114de565b9050919050565b7f4661696c656420746f207769746864726177206e617469766520746f6b656e73600082015250565b6000611557602083610e13565b915061156282611521565b602082019050919050565b600060208201905081810360008301526115868161154a565b905091905056fea2646970667358221220b74612725b964e15eca50b443735f2c7faa51f8eec52ecfc81371d92b298a7dd64736f6c63430008180033",
  "linkReferences": {},
  "deployedLinkReferences": {}
}