{
  "_format": "hh-sol-artifact-1",
  "contractName": "MultiSender",
  "sourceName": "contracts/MultiSender.sol",
  "abi": [
    {
      "inputs": [],
      "stateMutability": "nonpayable",
      "type": "constructor"
    },
    {
      "inputs": [
        {
          "internalType": "address",
          "name": "owner",
          "type": "address"
        }
      ],
      "name": "OwnableInvalidOwner",
      "type": "error"
    },
    {
      "inputs": [
        {
          "internalType": "address",
          "name": "account",
          "type": "address"
        }
      ],
      "name": "OwnableUnauthorizedAccount",
      "type": "error"
    },
    {
      "anonymous": false,
      "inputs": [
        {
          "indexed": true,
          "internalType": "address",
          "name": "sender",
          "type": "address"
        },
        {
          "indexed": true,
          "internalType": "address",
          "name": "tokenAddress",
          "type": "address"
        },
        {
          "indexed": false,
          "internalType": "address[]",
          "name": "recipients",
          "type": "address[]"
        },
        {
          "indexed": false,
          "internalType": "uint256[]",
          "name": "amounts",
          "type": "uint256[]"
        }
      ],
      "name": "ERC20TokensSent",
      "type": "event"
    },
    {
      "anonymous": false,
      "inputs": [
        {
          "indexed": true,
          "internalType": "address",
          "name": "sender",
          "type": "address"
        },
        {
          "indexed": false,
          "internalType": "address[]",
          "name": "recipients",
          "type": "address[]"
        },
        {
          "indexed": false,
          "internalType": "uint256[]",
          "name": "amounts",
          "type": "uint256[]"
        }
      ],
      "name": "NativeTokensSent",
      "type": "event"
    },
    {
      "anonymous": false,
      "inputs": [
        {
          "indexed": true,
          "internalType": "address",
          "name": "previousOwner",
          "type": "address"
        },
        {
          "indexed": true,
          "internalType": "address",
          "name": "newOwner",
          "type": "address"
        }
      ],
      "name": "OwnershipTransferred",
      "type": "event"
    },
    {
      "inputs": [],
      "name": "owner",
      "outputs": [
        {
          "internalType": "address",
          "name": "",
          "type": "address"
        }
      ],
      "stateMutability": "view",
      "type": "function"
    },
    {
      "inputs": [],
      "name": "renounceOwnership",
      "outputs": [],
      "stateMutability": "nonpayable",
      "type": "function"
    },
    {
      "inputs": [
        {
          "internalType": "address",
          "name": "_tokenAddress",
          "type": "address"
        },
        {
          "internalType": "address[]",
          "name": "_recipients",
          "type": "address[]"
        },
        {
          "internalType": "uint256[]",
          "name": "_amounts",
          "type": "uint256[]"
        }
      ],
      "name": "sendERC20Tokens",
      "outputs": [],
      "stateMutability": "nonpayable",
      "type": "function"
    },
    {
      "inputs": [
        {
          "internalType": "address[]",
          "name": "_recipients",
          "type": "address[]"
        },
        {
          "internalType": "uint256[]",
          "name": "_amounts",
          "type": "uint256[]"
        }
      ],
      "name": "sendNativeTokens",
      "outputs": [],
      "stateMutability": "payable",
      "type": "function"
    },
    {
      "inputs": [
        {
          "internalType": "address",
          "name": "newOwner",
          "type": "address"
        }
      ],
      "name": "transferOwnership",
      "outputs": [],
      "stateMutability": "nonpayable",
      "type": "function"
    },
    {
      "inputs": [
        {
          "internalType": "address",
          "name": "_tokenAddress",
          "type": "address"
        }
      ],
      "name": "withdrawERC20Tokens",
      "outputs": [],
      "stateMutability": "nonpayable",
      "type": "function"
    },
    {
      "inputs": [],
      "name": "withdrawNativeTokens",
      "outputs": [],
      "stateMutability": "nonpayable",
      "type": "function"
    },
    {
      "stateMutability": "payable",
      "type": "receive"
    }
  ],
  "bytecode": "0x60806040523480156200001157600080fd5b5033600073ffffffffffffffffffffffffffffffffffffffff168173ffffffffffffffffffffffffffffffffffffffff1603620000885760006040517f1e4fbdf70000000000000000000000000000000000000000000000000000000081526004016200007f9190620001a9565b60405180910390fd5b6200009981620000a060201b60201c565b50620001c6565b60008060009054906101000a900473ffffffffffffffffffffffffffffffffffffffff169050816000806101000a81548173ffffffffffffffffffffffffffffffffffffffff021916908373ffffffffffffffffffffffffffffffffffffffff1602179055508173ffffffffffffffffffffffffffffffffffffffff168173ffffffffffffffffffffffffffffffffffffffff167f8be0079c531659141344cd1fd0a4f28419497f9722a3daafe3b4186f6b6457e060405160405180910390a35050565b600073ffffffffffffffffffffffffffffffffffffffff82169050919050565b6000620001918262000164565b9050919050565b620001a38162000184565b82525050565b6000602082019050620001c0600083018462000198565b92915050565b6115b380620001d66000396000f3fe6080604052600436106100745760003560e01c80637c9a74f21161004e5780637c9a74f2146100e95780638da5cb5b14610105578063955a79c314610130578063f2fde38b146101475761007b565b80632af301a6146100805780634ff7ff32146100a9578063715018a6146100d25761007b565b3661007b57005b600080fd5b34801561008c57600080fd5b506100a760048036038101906100a29190610c96565b610170565b005b3480156100b557600080fd5b506100d060048036038101906100cb9190610d2b565b610490565b005b3480156100de57600080fd5b506100e7610627565b005b61010360048036038101906100fe9190610d58565b61063b565b005b34801561011157600080fd5b5061011a6108b3565b6040516101279190610de8565b60405180910390f35b34801561013c57600080fd5b506101456108dc565b005b34801561015357600080fd5b5061016e60048036038101906101699190610d2b565b61099a565b005b8181905084849050146101b8576040517f08c379a00000000000000000000000000000000000000000000000000000000081526004016101af90610e86565b60405180910390fd5b600084849050116101fe576040517f08c379a00000000000000000000000000000000000000000000000000000000081526004016101f590610ef2565b60405180910390fd5b60008590506000805b848490508110156102465784848281811061022557610224610f12565b5b90506020020135826102379190610f7a565b91508080600101915050610207565b50808273ffffffffffffffffffffffffffffffffffffffff166370a08231306040518263ffffffff1660e01b81526004016102819190610de8565b602060405180830381865afa15801561029e573d6000803e3d6000fd5b505050506040513d601f19601f820116820180604052508101906102c29190610fda565b1015610303576040517f08c379a00000000000000000000000000000000000000000000000000000000081526004016102fa90611053565b60405180910390fd5b60005b8686905081101561041b578273ffffffffffffffffffffffffffffffffffffffff1663a9059cbb8888848181106103405761033f610f12565b5b90506020020160208101906103559190610d2b565b87878581811061036857610367610f12565b5b905060200201356040518363ffffffff1660e01b815260040161038c929190611082565b6020604051808303816000875af11580156103ab573d6000803e3d6000fd5b505050506040513d601f19601f820116820180604052508101906103cf91906110e3565b61040e576040517f08c379a00000000000000000000000000000000000000000000000000000000081526004016104059061115c565b60405180910390fd5b8080600101915050610306565b508673ffffffffffffffffffffffffffffffffffffffff163373ffffffffffffffffffffffffffffffffffffffff167fa745424e52be3776c8f13a3ca59e3784bf8ab54532dd93611cbeb475eecb5e878888888860405161047f94939291906112ba565b60405180910390a350505050505050565b610498610a20565b600081905060008173ffffffffffffffffffffffffffffffffffffffff166370a08231306040518263ffffffff1660e01b81526004016104d89190610de8565b602060405180830381865afa1580156104f5573d6000803e3d6000fd5b505050506040513d601f19601f820116820180604052508101906105199190610fda565b90506000811161055e576040517f08c379a000000000000000000000000000000000000000000000000000000000815260040161055590611341565b60405180910390fd5b8173ffffffffffffffffffffffffffffffffffffffff1663a9059cbb6105826108b3565b836040518363ffffffff1660e01b81526004016105a0929190611082565b6020604051808303816000875af11580156105bf573d6000803e3d6000fd5b505050506040513d601f19601f820116820180604052508101906105e391906110e3565b610622576040517f08c379a0000000000000000000000000000000000000000000000000000000008152600401610619906113ad565b60405180910390fd5b505050565b61062f610a20565b6106396000610aa7565b565b818190508484905014610683576040517f08c379a000000000000000000000000000000000000000000000000000000000815260040161067a90610e86565b60405180910390fd5b600084849050116106c9576040517f08c379a00000000000000000000000000000000000000000000000000000000081526004016106c090610ef2565b60405180910390fd5b6000805b8383905081101561070c578383828181106106eb576106ea610f12565b5b90506020020135826106fd9190610f7a565b915080806001019150506106cd565b5080341461074f576040517f08c379a00000000000000000000000000000000000000000000000000000000081526004016107469061143f565b60405180910390fd5b60005b8585905081101561085757600086868381811061077257610771610f12565b5b90506020020160208101906107879190610d2b565b73ffffffffffffffffffffffffffffffffffffffff168585848181106107b0576107af610f12565b5b905060200201356040516107c390611490565b60006040518083038185875af1925050503d8060008114610800576040519150601f19603f3d011682016040523d82523d6000602084013e610805565b606091505b5050905080610849576040517f08c379a0000000000000000000000000000000000000000000000000000000008152600401610840906114f1565b60405180910390fd5b508080600101915050610752565b503373ffffffffffffffffffffffffffffffffffffffff167f84e771ac7bfed0348a7bdeb8846ad0aea353eceb70dc4f5a51b6ae8fa78cf1d6868686866040516108a494939291906112ba565b60405180910390a25050505050565b60008060009054906101000a900473ffffffffffffffffffffffffffffffffffffffff16905090565b6108e4610a20565b60006108ee6108b3565b73ffffffffffffffffffffffffffffffffffffffff164760405161091190611490565b60006040518083038185875af1925050503d806000811461094e576040519150601f19603f3d011682016040523d82523d6000602084013e610953565b606091505b5050905080610997576040517f08c379a000000000000000000000000000000000000000000000000000000000815260040161098e9061155d565b60405180910390fd5b50565b6109a2610a20565b600073ffffffffffffffffffffffffffffffffffffffff168173ffffffffffffffffffffffffffffffffffffffff1603610a145760006040517f1e4fbdf7000000000000000000000000000000000000000000000000000000008152600401610a0b9190610de8565b60405180910390fd5b610a1d81610aa7565b50565b610a28610b6b565b73ffffffffffffffffffffffffffffffffffffffff16610a466108b3565b73ffffffffffffffffffffffffffffffffffffffff1614610aa557610a69610b6b565b6040517f118cdaa7000000000000000000000000000000000000000000000000000000008152600401610a9c9190610de8565b60405180910390fd5b565b60008060009054906101000a900473ffffffffffffffffffffffffffffffffffffffff169050816000806101000a81548173ffffffffffffffffffffffffffffffffffffffff021916908373ffffffffffffffffffffffffffffffffffffffff1602179055508173ffffffffffffffffffffffffffffffffffffffff168173ffffffffffffffffffffffffffffffffffffffff167f8be0079c531659141344cd1fd0a4f28419497f9722a3daafe3b4186f6b6457e060405160405180910390a35050565b600033905090565b600080fd5b600080fd5b600073ffffffffffffffffffffffffffffffffffffffff82169050919050565b6000610ba882610b7d565b9050919050565b610bb881610b9d565b8114610bc357600080fd5b50565b600081359050610bd581610baf565b92915050565b600080fd5b600080fd5b600080fd5b60008083601f840112610c0057610bff610bdb565b5b8235905067ffffffffffffffff811115610c1d57610c1c610be0565b5b602083019150836020820283011115610c3957610c38610be5565b5b9250929050565b60008083601f840112610c5657610c55610bdb565b5b8235905067ffffffffffffffff811115610c7357610c72610be0565b5b602083019150836020820283011115610c8f57610c8e610be5565b5b9250929050565b600080600080600060608688031215610cb257610cb1610b73565b5b6000610cc088828901610bc6565b955050602086013567ffffffffffffffff811115610ce157610ce0610b78565b5b610ced88828901610bea565b9450945050604086013567ffffffffffffffff811115610d1057610d0f610b78565b5b610d1c88828901610c40565b92509250509295509295909350565b600060208284031215610d4157610d40610b73565b5b6000610d4f84828501610bc6565b91505092915050565b60008060008060408587031215610d7257610d71610b73565b5b600085013567ffffffffffffffff811115610d9057610d8f610b78565b5b610d9c87828801610bea565b9450945050602085013567ffffffffffffffff811115610dbf57610dbe610b78565b5b610dcb87828801610c40565b925092505092959194509250565b610de281610b9d565b82525050565b6000602082019050610dfd6000830184610dd9565b92915050565b600082825260208201905092915050565b7f526563697069656e747320616e6420616d6f756e7473206c656e677468206d6960008201527f736d617463680000000000000000000000000000000000000000000000000000602082015250565b6000610e70602683610e03565b9150610e7b82610e14565b604082019050919050565b60006020820190508181036000830152610e9f81610e63565b9050919050565b7f4e6f20726563697069656e74732070726f766964656400000000000000000000600082015250565b6000610edc601683610e03565b9150610ee782610ea6565b602082019050919050565b60006020820190508181036000830152610f0b81610ecf565b9050919050565b7f4e487b7100000000000000000000000000000000000000000000000000000000600052603260045260246000fd5b6000819050919050565b7f4e487b7100000000000000000000000000000000000000000000000000000000600052601160045260246000fd5b6000610f8582610f41565b9150610f9083610f41565b9250828201905080821115610fa857610fa7610f4b565b5b92915050565b610fb781610f41565b8114610fc257600080fd5b50565b600081519050610fd481610fae565b92915050565b600060208284031215610ff057610fef610b73565b5b6000610ffe84828501610fc5565b91505092915050565b7f496e73756666696369656e7420636f6e74726163742062616c616e6365000000600082015250565b600061103d601d83610e03565b915061104882611007565b602082019050919050565b6000602082019050818103600083015261106c81611030565b9050919050565b61107c81610f41565b82525050565b60006040820190506110976000830185610dd9565b6110a46020830184611073565b9392505050565b60008115159050919050565b6110c0816110ab565b81146110cb57600080fd5b50565b6000815190506110dd816110b7565b92915050565b6000602082840312156110f9576110f8610b73565b5b6000611107848285016110ce565b91505092915050565b7f4661696c656420746f2073656e6420455243323020746f6b656e730000000000600082015250565b6000611146601b83610e03565b915061115182611110565b602082019050919050565b6000602082019050818103600083015261117581611139565b9050919050565b600082825260208201905092915050565b6000819050919050565b6111a081610b9d565b82525050565b60006111b28383611197565b60208301905092915050565b60006111cd6020840184610bc6565b905092915050565b6000602082019050919050565b60006111ee838561117c565b93506111f98261118d565b8060005b858110156112325761120f82846111be565b61121988826111a6565b9750611224836111d5565b9250506001810190506111fd565b5085925050509392505050565b600082825260208201905092915050565b600080fd5b82818337505050565b600061126a838561123f565b93507f07ffffffffffffffffffffffffffffffffffffffffffffffffffffffffffffff83111561129d5761129c611250565b5b6020830292506112ae838584611255565b82840190509392505050565b600060408201905081810360008301526112d58186886111e2565b905081810360208301526112ea81848661125e565b905095945050505050565b7f4e6f20746f6b656e7320746f2077697468647261770000000000000000000000600082015250565b600061132b601583610e03565b9150611336826112f5565b602082019050919050565b6000602082019050818103600083015261135a8161131e565b9050919050565b7f4661696c656420746f20776974686472617720455243323020746f6b656e7300600082015250565b6000611397601f83610e03565b91506113a282611361565b602082019050919050565b600060208201905081810360008301526113c68161138a565b9050919050565b7f53656e742076616c756520646f6573206e6f74206d6174636820746f74616c2060008201527f616d6f756e740000000000000000000000000000000000000000000000000000602082015250565b6000611429602683610e03565b9150611434826113cd565b604082019050919050565b600060208201905081810360008301526114588161141c565b9050919050565b600081905092915050565b50565b600061147a60008361145f565b91506114858261146a565b600082019050919050565b600061149b8261146d565b9150819050919050565b7f4661696c656420746f2073656e64206e617469766520746f6b656e7300000000600082015250565b60006114db601c83610e03565b91506114e6826114a5565b602082019050919050565b6000602082019050818103600083015261150a816114ce565b9050919050565b7f4661696c656420746f207769746864726177206e617469766520746f6b656e73600082015250565b6000611547602083610e03565b915061155282611511565b602082019050919050565b600060208201905081810360008301526115768161153a565b905091905056fea2646970667358221220d70d5e504e90012283fd1dd261de58b8b7979becaf2338b2396dc0779e0fc9c264736f6c63430008180033",
  "linkReferences": {},
  "deployedLinkReferences": {}
}